{
  "_format": "hh-sol-artifact-1",
  "contractName": "Lottery",
  "sourceName": "contracts/Lottery.sol",
  "abi": [
    {
      "inputs": [
        {
          "internalType": "address",
          "name": "_priceFeedAddress",
          "type": "address"
        },
        {
          "internalType": "address",
          "name": "_vrfCoordinator",
          "type": "address"
        },
        {
          "internalType": "address",
          "name": "_link",
          "type": "address"
        },
        {
          "internalType": "uint256",
          "name": "_fee",
          "type": "uint256"
        },
        {
          "internalType": "bytes32",
          "name": "_keyhash",
          "type": "bytes32"
        }
      ],
      "stateMutability": "nonpayable",
      "type": "constructor"
    },
    {
      "anonymous": false,
      "inputs": [
        {
          "indexed": true,
          "internalType": "address",
          "name": "previousOwner",
          "type": "address"
        },
        {
          "indexed": true,
          "internalType": "address",
          "name": "newOwner",
          "type": "address"
        }
      ],
      "name": "OwnershipTransferred",
      "type": "event"
    },
    {
      "inputs": [],
      "name": "endLottery",
      "outputs": [],
      "stateMutability": "nonpayable",
      "type": "function"
    },
    {
      "inputs": [],
      "name": "enter",
      "outputs": [],
      "stateMutability": "payable",
      "type": "function"
    },
    {
      "inputs": [],
      "name": "fee",
      "outputs": [
        {
          "internalType": "uint256",
          "name": "",
          "type": "uint256"
        }
      ],
      "stateMutability": "view",
      "type": "function"
    },
    {
      "inputs": [],
      "name": "getEntranceFee",
      "outputs": [
        {
          "internalType": "uint256",
          "name": "",
          "type": "uint256"
        }
      ],
      "stateMutability": "view",
      "type": "function"
    },
    {
      "inputs": [],
      "name": "keyhash",
      "outputs": [
        {
          "internalType": "bytes32",
          "name": "",
          "type": "bytes32"
        }
      ],
      "stateMutability": "view",
      "type": "function"
    },
    {
      "inputs": [],
      "name": "latestRandomNumber",
      "outputs": [
        {
          "internalType": "uint256",
          "name": "",
          "type": "uint256"
        }
      ],
      "stateMutability": "view",
      "type": "function"
    },
    {
      "inputs": [],
      "name": "latestWinner",
      "outputs": [
        {
          "internalType": "address payable",
          "name": "",
          "type": "address"
        }
      ],
      "stateMutability": "view",
      "type": "function"
    },
    {
      "inputs": [],
      "name": "lotteryState",
      "outputs": [
        {
          "internalType": "enum Lottery.LOTTERY_STATE",
          "name": "",
          "type": "uint8"
        }
      ],
      "stateMutability": "view",
      "type": "function"
    },
    {
      "inputs": [],
      "name": "owner",
      "outputs": [
        {
          "internalType": "address",
          "name": "",
          "type": "address"
        }
      ],
      "stateMutability": "view",
      "type": "function"
    },
    {
      "inputs": [
        {
          "internalType": "uint256",
          "name": "",
          "type": "uint256"
        }
      ],
      "name": "players",
      "outputs": [
        {
          "internalType": "address payable",
          "name": "",
          "type": "address"
        }
      ],
      "stateMutability": "view",
      "type": "function"
    },
    {
      "inputs": [
        {
          "internalType": "bytes32",
          "name": "requestId",
          "type": "bytes32"
        },
        {
          "internalType": "uint256",
          "name": "randomness",
          "type": "uint256"
        }
      ],
      "name": "rawFulfillRandomness",
      "outputs": [],
      "stateMutability": "nonpayable",
      "type": "function"
    },
    {
      "inputs": [],
      "name": "renounceOwnership",
      "outputs": [],
      "stateMutability": "nonpayable",
      "type": "function"
    },
    {
      "inputs": [],
      "name": "startLottery",
      "outputs": [],
      "stateMutability": "nonpayable",
      "type": "function"
    },
    {
      "inputs": [
        {
          "internalType": "address",
          "name": "newOwner",
          "type": "address"
        }
      ],
      "name": "transferOwnership",
      "outputs": [],
      "stateMutability": "nonpayable",
      "type": "function"
    },
    {
      "inputs": [],
      "name": "usdEntranceFee",
      "outputs": [
        {
          "internalType": "uint256",
          "name": "",
          "type": "uint256"
        }
      ],
      "stateMutability": "view",
      "type": "function"
    }
  ],
  "bytecode": "0x60c06040523480156200001157600080fd5b506040516200209938038062002099833981810160405281019062000037919062000296565b8383620000596200004d6200018560201b60201c565b6200018d60201b60201c565b8173ffffffffffffffffffffffffffffffffffffffff1660a08173ffffffffffffffffffffffffffffffffffffffff1660601b815250508073ffffffffffffffffffffffffffffffffffffffff1660808173ffffffffffffffffffffffffffffffffffffffff1660601b8152505050506802b5e3af16b188000060038190555084600460006101000a81548173ffffffffffffffffffffffffffffffffffffffff021916908373ffffffffffffffffffffffffffffffffffffffff1602179055506001600460146101000a81548160ff0219169083600281111562000167577f4e487b7100000000000000000000000000000000000000000000000000000000600052602160045260246000fd5b021790555081600581905550806006819055505050505050620003ae565b600033905090565b60008060009054906101000a900473ffffffffffffffffffffffffffffffffffffffff169050816000806101000a81548173ffffffffffffffffffffffffffffffffffffffff021916908373ffffffffffffffffffffffffffffffffffffffff1602179055508173ffffffffffffffffffffffffffffffffffffffff168173ffffffffffffffffffffffffffffffffffffffff167f8be0079c531659141344cd1fd0a4f28419497f9722a3daafe3b4186f6b6457e060405160405180910390a35050565b600081519050620002628162000360565b92915050565b60008151905062000279816200037a565b92915050565b600081519050620002908162000394565b92915050565b600080600080600060a08688031215620002af57600080fd5b6000620002bf8882890162000251565b9550506020620002d28882890162000251565b9450506040620002e58882890162000251565b9350506060620002f8888289016200027f565b92505060806200030b8882890162000268565b9150509295509295909350565b6000620003258262000336565b9050919050565b6000819050919050565b600073ffffffffffffffffffffffffffffffffffffffff82169050919050565b6000819050919050565b6200036b8162000318565b81146200037757600080fd5b50565b62000385816200032c565b81146200039157600080fd5b50565b6200039f8162000356565b8114620003ab57600080fd5b50565b60805160601c60a05160601c611cb8620003e1600039600081816108380152610bce01526000610b920152611cb86000f3fe6080604052600436106100e85760003560e01c8063715018a61161008a578063e70f65ac11610059578063e70f65ac14610288578063e97dcb62146102b3578063f2fde38b146102bd578063f71d96cb146102e6576100e8565b8063715018a6146101f25780638da5cb5b1461020957806394985ddd14610234578063ddca3f431461025d576100e8565b8063160344e2116100c6578063160344e21461015a57806316fe73ec146101715780636939864b1461019c57806369ebe78e146101c7576100e8565b806306ef53e0146100ed57806309bc33a7146101185780631593a8c714610143575b600080fd5b3480156100f957600080fd5b50610102610323565b60405161010f91906116ff565b60405180910390f35b34801561012457600080fd5b5061012d610349565b60405161013a91906118fc565b60405180910390f35b34801561014f57600080fd5b50610158610435565b005b34801561016657600080fd5b5061016f6105d5565b005b34801561017d57600080fd5b50610186610766565b60405161019391906118fc565b60405180910390f35b3480156101a857600080fd5b506101b161076c565b6040516101be91906117e1565b60405180910390f35b3480156101d357600080fd5b506101dc61077f565b6040516101e99190611758565b60405180910390f35b3480156101fe57600080fd5b50610207610785565b005b34801561021557600080fd5b5061021e61080d565b60405161022b91906116e4565b60405180910390f35b34801561024057600080fd5b5061025b600480360381019061025691906112b8565b610836565b005b34801561026957600080fd5b506102726108d2565b60405161027f91906118fc565b60405180910390f35b34801561029457600080fd5b5061029d6108d8565b6040516102aa91906118fc565b60405180910390f35b6102bb6108de565b005b3480156102c957600080fd5b506102e460048036038101906102df9190611266565b610a4f565b005b3480156102f257600080fd5b5061030d600480360381019061030891906112f4565b610b47565b60405161031a91906116ff565b60405180910390f35b600760009054906101000a900473ffffffffffffffffffffffffffffffffffffffff1681565b600080600460009054906101000a900473ffffffffffffffffffffffffffffffffffffffff1673ffffffffffffffffffffffffffffffffffffffff1663feaf968c6040518163ffffffff1660e01b815260040160a06040518083038186803b1580156103b457600080fd5b505afa1580156103c8573d6000803e3d6000fd5b505050506040513d601f19601f820116820180604052508101906103ec919061131d565b50505091505060006402540be4008261040591906119cb565b9050600081670de0b6b3a764000060035461042091906119cb565b61042a919061199a565b905080935050505090565b61043d610b86565b73ffffffffffffffffffffffffffffffffffffffff1661045b61080d565b73ffffffffffffffffffffffffffffffffffffffff16146104b1576040517f08c379a00000000000000000000000000000000000000000000000000000000081526004016104a89061189c565b60405180910390fd5b600060028111156104eb577f4e487b7100000000000000000000000000000000000000000000000000000000600052602160045260246000fd5b600460149054906101000a900460ff166002811115610533577f4e487b7100000000000000000000000000000000000000000000000000000000600052602160045260246000fd5b14610573576040517f08c379a000000000000000000000000000000000000000000000000000000000815260040161056a9061187c565b60405180910390fd5b6002600460146101000a81548160ff021916908360028111156105bf577f4e487b7100000000000000000000000000000000000000000000000000000000600052602160045260246000fd5b02179055506105d2600654600554610b8e565b50565b6105dd610b86565b73ffffffffffffffffffffffffffffffffffffffff166105fb61080d565b73ffffffffffffffffffffffffffffffffffffffff1614610651576040517f08c379a00000000000000000000000000000000000000000000000000000000081526004016106489061189c565b60405180910390fd5b6001600281111561068b577f4e487b7100000000000000000000000000000000000000000000000000000000600052602160045260246000fd5b600460149054906101000a900460ff1660028111156106d3577f4e487b7100000000000000000000000000000000000000000000000000000000600052602160045260246000fd5b14610713576040517f08c379a000000000000000000000000000000000000000000000000000000000815260040161070a906118bc565b60405180910390fd5b6000600460146101000a81548160ff0219169083600281111561075f577f4e487b7100000000000000000000000000000000000000000000000000000000600052602160045260246000fd5b0217905550565b60085481565b600460149054906101000a900460ff1681565b60065481565b61078d610b86565b73ffffffffffffffffffffffffffffffffffffffff166107ab61080d565b73ffffffffffffffffffffffffffffffffffffffff1614610801576040517f08c379a00000000000000000000000000000000000000000000000000000000081526004016107f89061189c565b60405180910390fd5b61080b6000610cef565b565b60008060009054906101000a900473ffffffffffffffffffffffffffffffffffffffff16905090565b7f000000000000000000000000000000000000000000000000000000000000000073ffffffffffffffffffffffffffffffffffffffff163373ffffffffffffffffffffffffffffffffffffffff16146108c4576040517f08c379a00000000000000000000000000000000000000000000000000000000081526004016108bb906118dc565b60405180910390fd5b6108ce8282610db3565b5050565b60055481565b60035481565b60006002811115610918577f4e487b7100000000000000000000000000000000000000000000000000000000600052602160045260246000fd5b600460149054906101000a900460ff166002811115610960577f4e487b7100000000000000000000000000000000000000000000000000000000600052602160045260246000fd5b146109a0576040517f08c379a00000000000000000000000000000000000000000000000000000000081526004016109979061187c565b60405180910390fd5b6109a8610349565b3410156109ea576040517f08c379a00000000000000000000000000000000000000000000000000000000081526004016109e19061181c565b60405180910390fd5b6002339080600181540180825580915050600190039060005260206000200160009091909190916101000a81548173ffffffffffffffffffffffffffffffffffffffff021916908373ffffffffffffffffffffffffffffffffffffffff160217905550565b610a57610b86565b73ffffffffffffffffffffffffffffffffffffffff16610a7561080d565b73ffffffffffffffffffffffffffffffffffffffff1614610acb576040517f08c379a0000000000000000000000000000000000000000000000000000000008152600401610ac29061189c565b60405180910390fd5b600073ffffffffffffffffffffffffffffffffffffffff168173ffffffffffffffffffffffffffffffffffffffff161415610b3b576040517f08c379a0000000000000000000000000000000000000000000000000000000008152600401610b32906117fc565b60405180910390fd5b610b4481610cef565b50565b60028181548110610b5757600080fd5b906000526020600020016000915054906101000a900473ffffffffffffffffffffffffffffffffffffffff1681565b600033905090565b60007f000000000000000000000000000000000000000000000000000000000000000073ffffffffffffffffffffffffffffffffffffffff16634000aea07f000000000000000000000000000000000000000000000000000000000000000084866000604051602001610c02929190611773565b6040516020818303038152906040526040518463ffffffff1660e01b8152600401610c2f9392919061171a565b602060405180830381600087803b158015610c4957600080fd5b505af1158015610c5d573d6000803e3d6000fd5b505050506040513d601f19601f82011682018060405250810190610c81919061128f565b506000610ca48460003060016000898152602001908152602001600020546110bd565b9050600180600086815260200190815260200160002054610cc59190611944565b6001600086815260200190815260200160002081905550610ce684826110f9565b91505092915050565b60008060009054906101000a900473ffffffffffffffffffffffffffffffffffffffff169050816000806101000a81548173ffffffffffffffffffffffffffffffffffffffff021916908373ffffffffffffffffffffffffffffffffffffffff1602179055508173ffffffffffffffffffffffffffffffffffffffff168173ffffffffffffffffffffffffffffffffffffffff167f8be0079c531659141344cd1fd0a4f28419497f9722a3daafe3b4186f6b6457e060405160405180910390a35050565b600280811115610dec577f4e487b7100000000000000000000000000000000000000000000000000000000600052602160045260246000fd5b600460149054906101000a900460ff166002811115610e34577f4e487b7100000000000000000000000000000000000000000000000000000000600052602160045260246000fd5b14610e74576040517f08c379a0000000000000000000000000000000000000000000000000000000008152600401610e6b9061185c565b60405180910390fd5b60008111610eb7576040517f08c379a0000000000000000000000000000000000000000000000000000000008152600401610eae9061183c565b60405180910390fd5b80600881905550600060028054905082610ed19190611b15565b905060028181548110610f0d577f4e487b7100000000000000000000000000000000000000000000000000000000600052603260045260246000fd5b9060005260206000200160009054906101000a900473ffffffffffffffffffffffffffffffffffffffff16600760006101000a81548173ffffffffffffffffffffffffffffffffffffffff021916908373ffffffffffffffffffffffffffffffffffffffff160217905550600760009054906101000a900473ffffffffffffffffffffffffffffffffffffffff1673ffffffffffffffffffffffffffffffffffffffff166108fc479081150290604051600060405180830381858888f19350505050158015610fe0573d6000803e3d6000fd5b50600067ffffffffffffffff811115611022577f4e487b7100000000000000000000000000000000000000000000000000000000600052604160045260246000fd5b6040519080825280602002602001820160405280156110505781602001602082028036833780820191505090505b506002908051906020019061106692919061112c565b506001600460146101000a81548160ff021916908360028111156110b3577f4e487b7100000000000000000000000000000000000000000000000000000000600052602160045260246000fd5b0217905550505050565b6000848484846040516020016110d6949392919061179c565b6040516020818303038152906040528051906020012060001c9050949350505050565b6000828260405160200161110e9291906116b8565b60405160208183030381529060405280519060200120905092915050565b8280548282559060005260206000209081019282156111a5579160200282015b828111156111a45782518260006101000a81548173ffffffffffffffffffffffffffffffffffffffff021916908373ffffffffffffffffffffffffffffffffffffffff1602179055509160200191906001019061114c565b5b5090506111b291906111b6565b5090565b5b808211156111cf5760008160009055506001016111b7565b5090565b6000813590506111e281611bf8565b92915050565b6000815190506111f781611c0f565b92915050565b60008135905061120c81611c26565b92915050565b60008151905061122181611c3d565b92915050565b60008135905061123681611c54565b92915050565b60008151905061124b81611c54565b92915050565b60008151905061126081611c6b565b92915050565b60006020828403121561127857600080fd5b6000611286848285016111d3565b91505092915050565b6000602082840312156112a157600080fd5b60006112af848285016111e8565b91505092915050565b600080604083850312156112cb57600080fd5b60006112d9858286016111fd565b92505060206112ea85828601611227565b9150509250929050565b60006020828403121561130657600080fd5b600061131484828501611227565b91505092915050565b600080600080600060a0868803121561133557600080fd5b600061134388828901611251565b955050602061135488828901611212565b94505060406113658882890161123c565b93505060606113768882890161123c565b925050608061138788828901611251565b9150509295509295909350565b61139d81611a37565b82525050565b6113ac81611a25565b82525050565b6113bb81611a55565b82525050565b6113d26113cd82611a55565b611b01565b82525050565b60006113e382611917565b6113ed8185611922565b93506113fd818560208601611ace565b61140681611bd3565b840191505092915050565b61141a81611abc565b82525050565b600061142d602683611933565b91507f4f776e61626c653a206e6577206f776e657220697320746865207a65726f206160008301527f64647265737300000000000000000000000000000000000000000000000000006020830152604082019050919050565b6000611493602783611933565b91507f496e73756666696369656e742066756e647320746f20656e746572207468652060008301527f6c6f7474657279000000000000000000000000000000000000000000000000006020830152604082019050919050565b60006114f9601e83611933565b91507f412072616e646f6d206e756d62657220776173206e6f7420666f756e642e00006000830152602082019050919050565b6000611539602f83611933565b91507f4c6f7474657279206973206e6f7420696e207468652063616c63756c6174696e60008301527f672077696e6e65722073746174652e00000000000000000000000000000000006020830152604082019050919050565b600061159f601483611933565b91507f4c6f7474657279206973206e6f74206f70656e2e0000000000000000000000006000830152602082019050919050565b60006115df602083611933565b91507f4f776e61626c653a2063616c6c6572206973206e6f7420746865206f776e65726000830152602082019050919050565b600061161f601883611933565b91507f4c6f747465727920697320616c7265616479206f70656e2e00000000000000006000830152602082019050919050565b600061165f601f83611933565b91507f4f6e6c7920565246436f6f7264696e61746f722063616e2066756c66696c6c006000830152602082019050919050565b61169b81611a9c565b82525050565b6116b26116ad82611a9c565b611b0b565b82525050565b60006116c482856113c1565b6020820191506116d482846116a1565b6020820191508190509392505050565b60006020820190506116f960008301846113a3565b92915050565b60006020820190506117146000830184611394565b92915050565b600060608201905061172f60008301866113a3565b61173c6020830185611692565b818103604083015261174e81846113d8565b9050949350505050565b600060208201905061176d60008301846113b2565b92915050565b600060408201905061178860008301856113b2565b6117956020830184611692565b9392505050565b60006080820190506117b160008301876113b2565b6117be6020830186611692565b6117cb60408301856113a3565b6117d86060830184611692565b95945050505050565b60006020820190506117f66000830184611411565b92915050565b6000602082019050818103600083015261181581611420565b9050919050565b6000602082019050818103600083015261183581611486565b9050919050565b60006020820190508181036000830152611855816114ec565b9050919050565b600060208201905081810360008301526118758161152c565b9050919050565b6000602082019050818103600083015261189581611592565b9050919050565b600060208201905081810360008301526118b5816115d2565b9050919050565b600060208201905081810360008301526118d581611612565b9050919050565b600060208201905081810360008301526118f581611652565b9050919050565b60006020820190506119116000830184611692565b92915050565b600081519050919050565b600082825260208201905092915050565b600082825260208201905092915050565b600061194f82611a9c565b915061195a83611a9c565b9250827fffffffffffffffffffffffffffffffffffffffffffffffffffffffffffffffff0382111561198f5761198e611b46565b5b828201905092915050565b60006119a582611a9c565b91506119b083611a9c565b9250826119c0576119bf611b75565b5b828204905092915050565b60006119d682611a9c565b91506119e183611a9c565b9250817fffffffffffffffffffffffffffffffffffffffffffffffffffffffffffffffff0483118215151615611a1a57611a19611b46565b5b828202905092915050565b6000611a3082611a7c565b9050919050565b6000611a4282611a7c565b9050919050565b60008115159050919050565b6000819050919050565b6000819050611a6d82611be4565b919050565b6000819050919050565b600073ffffffffffffffffffffffffffffffffffffffff82169050919050565b6000819050919050565b600069ffffffffffffffffffff82169050919050565b6000611ac782611a5f565b9050919050565b60005b83811015611aec578082015181840152602081019050611ad1565b83811115611afb576000848401525b50505050565b6000819050919050565b6000819050919050565b6000611b2082611a9c565b9150611b2b83611a9c565b925082611b3b57611b3a611b75565b5b828206905092915050565b7f4e487b7100000000000000000000000000000000000000000000000000000000600052601160045260246000fd5b7f4e487b7100000000000000000000000000000000000000000000000000000000600052601260045260246000fd5b7f4e487b7100000000000000000000000000000000000000000000000000000000600052602160045260246000fd5b6000601f19601f8301169050919050565b60038110611bf557611bf4611ba4565b5b50565b611c0181611a25565b8114611c0c57600080fd5b50565b611c1881611a49565b8114611c2357600080fd5b50565b611c2f81611a55565b8114611c3a57600080fd5b50565b611c4681611a72565b8114611c5157600080fd5b50565b611c5d81611a9c565b8114611c6857600080fd5b50565b611c7481611aa6565b8114611c7f57600080fd5b5056fea2646970667358221220b54b2dd9bf583fdfa3f649b4a5ed5679614ab493766163970d4d6424ad7e169564736f6c63430008000033",
  "linkReferences": {},
  "deployedLinkReferences": {}
}